:020000040000FA
:040000000128F82FAC
:100A34002E340034833052018C0008007108D30036
:100A44007008D20008007108D5007008D4000800AE
:100A540071084001D7007008D600080064008001C6
:100A64000131890B312D00344525CE255E251C2509
:100A74003D2597250800F33041019E009B019C0110
:100A840001309D0008004F019601970198019901DA
:100A94009A019B010800F0004E010F1E4E2D7008B4
:100AA40042019A0008000D340A34743465346D34FC
:100AB40070343D3420340034603051018D008F0196
:100AC400910102309300900192010800F40074082F
:100AD400F2007208F3007408860087010108031904
:100AE400782D0130F2007208F4076D2D730874023A
:100AF400F000F101F01BF1030800F3007308F200A9
:100B0400F20DF20D41011D087206033972069D00B3
:100B14001D1400320032000041019D149D18902DD7
:100B24001C08F1001B08F0000800083042019F0077
:100B340090309D0024309E0067309B009C01003063
:100B4400F0000030F1002A250030F0000030F10000
:100B540025250030F0000030F1002025A201080016
:100B6400FB017808803A803C031DBA2D77087B028C
:100B7400031808007608FA007508F9007B0879075D
:100B840084007A0803187A0A850000084D2501308C
:100B9400F9007908FB07B32D400198019A01373019
:100BA40092002F3094001F307E01CE003730B80001
:100BB400B901CF01BA01D0013730BB003F30D100B9
:100BC4003F30BC003F30D2000F30A40015307D010F
:100BD400CB000800700871040319132EF501F50AFF
:100BE400F11BFE2D0130F035F10D890BF52D01308F
:100BF400F4007408F507F22D71087302031D042E26
:100C040070087202031C0A2E7008F2027108F33B8A
:100C14000130F136F00C890B0B2E0130F502031D67
:100C2400FE2D7308F1007208F0000800F501F601CA
:100C3400700871040319472EF701F70AF11B2C2ED3
:100C44000130F035F10D890B232E0130F4007408C6
:100C5400F707202E0130F535F60D890B2D2E71087E
:100C64007302031D372E70087202031C3E2E700897
:100C7400F2027108F33B75140130F136F00C890B64
:100C84003F2E0130F702031D2C2E7608F100750863
:100C9400F0000800FD00F901FA017D0868257008DC
:100CA400FF3EFB00FF30713DFC007A08803AF500FE
:100CB4007C08803A7502031D612E7B0879020318B3
:100CC400080079087D07F50075088600870101088A
:100CD400F6007608F8007B087D07F50075088600A5
:100CE40087010108F60079087D07F7007708860078
:100CF4008701760881007808F5007B087D07F600F7
:100D0400760886008701750881000130F9070030F4
:100D1400FA3DFF30FB07FF30FC3D572EF601F31F71
:100D24009A2EF209F309F20A0319F30AF601F60AF4
:100D3400F11FA12EF009F109F00A0319F10A700854
:100D440071040319C82EF501F50AF11BB32E013005
:100D5400F035F10D890BAA2E0130F4007408F50763
:100D6400A72E71087302031DB92E70087202031CAA
:100D7400BF2E7008F2027108F33B0130F136F00C1B
:100D8400890BC02E0130F502031DB32E760803191A
:100D9400D02EF209F309F20A0319F30A7308F100D9
:100DA4007208F0000800F601F11FDF2EF009F109C6
:100DB400F00A0319F10AF601F60AF31FEA2EF20902
:100DC400F309F20A0319F30A0130F4007408F60671
:100DD400F701F801700871040319192FF501F50AD8
:100DE400F11BFE2E0130F035F10D890BF52E01308B
:100DF400F4007408F507F22E0130F735F80D890B6D
:100E0400FF2E71087302031D092F70087202031C60
:100E1400102F7008F2027108F33B77140130F13699
:100E2400F00C890B112F0130F502031DFE2E7608FC
:100E34000319212FF709F809F70A0319F80A7808A2
:100E4400F1007708F00008004408C9004308C8000E
:100E5400C91F312FC309C409C30A0319C40ACA012B
:100E6400CB010A30F0000030F10040014408F300E7
:100E74004308F20090267008303EC6004A08450731
:100E8400C700470886008701460881000130CA0769
:100E94000030CB3D0A30F0000030F1004408F3008C
:100EA4004308F200D5267108C4007008C300440842
:100EB400803AC60080304602031D622F013043028F
:100EC4000318332F4001C91F752F2D30C6004A085F
:100ED4004507C7004708860087014608810001309E
:100EE400CA070030CB3D4A084507C60046088600BD
:100EF4008701810145084C260800362505307F25E9
:100F040071084001D1007008D0005108CD0050088C
:100F1400CC00CC35CD0DCC35CD0D4C08563ECE0095
:100F2400F5304D3DCF005530F5008530F6000830E2
:100F3400F7000030F800B2250A30F0000030F1006C
:100F440040014F08F3004E08F20018267108C4004F
:100F54007008C3002330CC004C08C500262723307A
:100F6400F5000030F600233068257108F800700899
:100F7400F700B2251A30F5008530F6000130F7008D
:100F84000030F800B2250A30F0000030F1004001D2
:100F94004F08F3004E08F200EC257108C4007008F5
:100FA400C3002330CC004C08C50026272330F500AD
:100FB4000030F600233068257108F8007008F70047
:100FC400B22502307F2571084001D1007008D0009D
:100FD40006304001CD001330CC00AD30890BF02F2A
:100FE400CC0BF02FCD0BF02F0032802F203084005B
:0C0FF400003085002330302540017F2FA5
:020000040001F9
:0A000E00EC3FFF3F9F3FFF3FFF3F25
:00000001FF
